{
  "contractName": "Token",
  "abi": [
    {
      "constant": true,
      "inputs": [
        {
          "name": "interfaceId",
          "type": "bytes4"
        }
      ],
      "name": "supportsInterface",
      "outputs": [
        {
          "name": "",
          "type": "bool"
        }
      ],
      "payable": false,
      "stateMutability": "view",
      "type": "function"
    },
    {
      "constant": true,
      "inputs": [
        {
          "name": "tokenId",
          "type": "uint256"
        }
      ],
      "name": "getApproved",
      "outputs": [
        {
          "name": "",
          "type": "address"
        }
      ],
      "payable": false,
      "stateMutability": "view",
      "type": "function"
    },
    {
      "constant": false,
      "inputs": [
        {
          "name": "to",
          "type": "address"
        },
        {
          "name": "tokenId",
          "type": "uint256"
        }
      ],
      "name": "approve",
      "outputs": [],
      "payable": false,
      "stateMutability": "nonpayable",
      "type": "function"
    },
    {
      "constant": true,
      "inputs": [],
      "name": "totalSupply",
      "outputs": [
        {
          "name": "",
          "type": "uint256"
        }
      ],
      "payable": false,
      "stateMutability": "view",
      "type": "function"
    },
    {
      "constant": false,
      "inputs": [
        {
          "name": "from",
          "type": "address"
        },
        {
          "name": "to",
          "type": "address"
        },
        {
          "name": "tokenId",
          "type": "uint256"
        }
      ],
      "name": "transferFrom",
      "outputs": [],
      "payable": false,
      "stateMutability": "nonpayable",
      "type": "function"
    },
    {
      "constant": true,
      "inputs": [
        {
          "name": "owner",
          "type": "address"
        },
        {
          "name": "index",
          "type": "uint256"
        }
      ],
      "name": "tokenOfOwnerByIndex",
      "outputs": [
        {
          "name": "",
          "type": "uint256"
        }
      ],
      "payable": false,
      "stateMutability": "view",
      "type": "function"
    },
    {
      "constant": false,
      "inputs": [
        {
          "name": "from",
          "type": "address"
        },
        {
          "name": "to",
          "type": "address"
        },
        {
          "name": "tokenId",
          "type": "uint256"
        }
      ],
      "name": "safeTransferFrom",
      "outputs": [],
      "payable": false,
      "stateMutability": "nonpayable",
      "type": "function"
    },
    {
      "constant": true,
      "inputs": [
        {
          "name": "index",
          "type": "uint256"
        }
      ],
      "name": "tokenByIndex",
      "outputs": [
        {
          "name": "",
          "type": "uint256"
        }
      ],
      "payable": false,
      "stateMutability": "view",
      "type": "function"
    },
    {
      "constant": true,
      "inputs": [
        {
          "name": "tokenId",
          "type": "uint256"
        }
      ],
      "name": "ownerOf",
      "outputs": [
        {
          "name": "",
          "type": "address"
        }
      ],
      "payable": false,
      "stateMutability": "view",
      "type": "function"
    },
    {
      "constant": true,
      "inputs": [
        {
          "name": "owner",
          "type": "address"
        }
      ],
      "name": "balanceOf",
      "outputs": [
        {
          "name": "",
          "type": "uint256"
        }
      ],
      "payable": false,
      "stateMutability": "view",
      "type": "function"
    },
    {
      "constant": false,
      "inputs": [
        {
          "name": "to",
          "type": "address"
        },
        {
          "name": "approved",
          "type": "bool"
        }
      ],
      "name": "setApprovalForAll",
      "outputs": [],
      "payable": false,
      "stateMutability": "nonpayable",
      "type": "function"
    },
    {
      "constant": false,
      "inputs": [
        {
          "name": "from",
          "type": "address"
        },
        {
          "name": "to",
          "type": "address"
        },
        {
          "name": "tokenId",
          "type": "uint256"
        },
        {
          "name": "_data",
          "type": "bytes"
        }
      ],
      "name": "safeTransferFrom",
      "outputs": [],
      "payable": false,
      "stateMutability": "nonpayable",
      "type": "function"
    },
    {
      "constant": true,
      "inputs": [
        {
          "name": "owner",
          "type": "address"
        },
        {
          "name": "operator",
          "type": "address"
        }
      ],
      "name": "isApprovedForAll",
      "outputs": [
        {
          "name": "",
          "type": "bool"
        }
      ],
      "payable": false,
      "stateMutability": "view",
      "type": "function"
    },
    {
      "anonymous": false,
      "inputs": [
        {
          "indexed": true,
          "name": "from",
          "type": "address"
        },
        {
          "indexed": true,
          "name": "to",
          "type": "address"
        },
        {
          "indexed": true,
          "name": "tokenId",
          "type": "uint256"
        }
      ],
      "name": "Transfer",
      "type": "event"
    },
    {
      "anonymous": false,
      "inputs": [
        {
          "indexed": true,
          "name": "owner",
          "type": "address"
        },
        {
          "indexed": true,
          "name": "approved",
          "type": "address"
        },
        {
          "indexed": true,
          "name": "tokenId",
          "type": "uint256"
        }
      ],
      "name": "Approval",
      "type": "event"
    },
    {
      "anonymous": false,
      "inputs": [
        {
          "indexed": true,
          "name": "owner",
          "type": "address"
        },
        {
          "indexed": true,
          "name": "operator",
          "type": "address"
        },
        {
          "indexed": false,
          "name": "approved",
          "type": "bool"
        }
      ],
      "name": "ApprovalForAll",
      "type": "event"
    },
    {
      "constant": false,
      "inputs": [
        {
          "name": "tokenId",
          "type": "uint256"
        }
      ],
      "name": "mint",
      "outputs": [],
      "payable": false,
      "stateMutability": "nonpayable",
      "type": "function"
    },
    {
      "constant": false,
      "inputs": [
        {
          "name": "tokenId",
          "type": "uint256"
        },
        {
          "name": "tokenData",
          "type": "bytes"
        }
      ],
      "name": "mint",
      "outputs": [],
      "payable": false,
      "stateMutability": "nonpayable",
      "type": "function"
    },
    {
      "constant": false,
      "inputs": [
        {
          "name": "tokenId",
          "type": "uint256"
        }
      ],
      "name": "burn",
      "outputs": [],
      "payable": false,
      "stateMutability": "nonpayable",
      "type": "function"
    },
    {
      "constant": true,
      "inputs": [
        {
          "name": "tokenId",
          "type": "uint256"
        }
      ],
      "name": "getData",
      "outputs": [
        {
          "name": "",
          "type": "bytes"
        }
      ],
      "payable": false,
      "stateMutability": "view",
      "type": "function"
    },
    {
      "constant": false,
      "inputs": [
        {
          "name": "tokenId",
          "type": "uint256"
        },
        {
          "name": "tokenData",
          "type": "bytes"
        }
      ],
      "name": "setData",
      "outputs": [],
      "payable": false,
      "stateMutability": "nonpayable",
      "type": "function"
    },
    {
      "constant": true,
      "inputs": [],
      "name": "tokensOwned",
      "outputs": [
        {
          "name": "",
          "type": "uint256[]"
        }
      ],
      "payable": false,
      "stateMutability": "view",
      "type": "function"
    },
    {
      "constant": false,
      "inputs": [
        {
          "name": "to",
          "type": "address"
        },
        {
          "name": "tokenId",
          "type": "uint256"
        }
      ],
      "name": "transfer",
      "outputs": [],
      "payable": false,
      "stateMutability": "nonpayable",
      "type": "function"
    }
  ],
  "bytecode": "0x60806040526200001c6301ffc9a760e01b6200005260201b60201c565b620000346380ac58cd60e01b6200005260201b60201c565b6200004c63780e9d6360e01b6200005260201b60201c565b620000f2565b63ffffffff60e01b817bffffffffffffffffffffffffffffffffffffffffffffffffffffffff191614156200008657600080fd5b6001600080837bffffffffffffffffffffffffffffffffffffffffffffffffffffffff19167bffffffffffffffffffffffffffffffffffffffffffffffffffffffff1916815260200190815260200160002060006101000a81548160ff02191690831515021790555050565b611f4680620001026000396000f3fe608060405234801561001057600080fd5b506004361061012c5760003560e01c80636352211e116100ad578063b88d4fde11610071578063b88d4fde14610657578063b9f4be1e1461075c578063c4950a1414610821578063db7fd40814610880578063e985e9c5146109455761012c565b80636352211e146104c557806370a0823114610533578063a0712d681461058b578063a22cb465146105b9578063a9059cbb146106095761012c565b806323b872dd116100f457806323b872dd146103175780632f745c591461038557806342842e0e146103e757806342966c68146104555780634f6ccce7146104835761012c565b80630178fe3f1461013157806301ffc9a7146101d8578063081812fc1461023d578063095ea7b3146102ab57806318160ddd146102f9575b600080fd5b61015d6004803603602081101561014757600080fd5b81019080803590602001909291905050506109c1565b6040518080602001828103825283818151815260200191508051906020019080838360005b8381101561019d578082015181840152602081019050610182565b50505050905090810190601f1680156101ca5780820380516001836020036101000a031916815260200191505b509250505060405180910390f35b610223600480360360208110156101ee57600080fd5b8101908080357bffffffffffffffffffffffffffffffffffffffffffffffffffffffff19169060200190929190505050610a88565b604051808215151515815260200191505060405180910390f35b6102696004803603602081101561025357600080fd5b8101908080359060200190929190505050610aef565b604051808273ffffffffffffffffffffffffffffffffffffffff1673ffffffffffffffffffffffffffffffffffffffff16815260200191505060405180910390f35b6102f7600480360360408110156102c157600080fd5b81019080803573ffffffffffffffffffffffffffffffffffffffff16906020019092919080359060200190929190505050610b3e565b005b610301610c7f565b6040518082815260200191505060405180910390f35b6103836004803603606081101561032d57600080fd5b81019080803573ffffffffffffffffffffffffffffffffffffffff169060200190929190803573ffffffffffffffffffffffffffffffffffffffff16906020019092919080359060200190929190505050610c8c565b005b6103d16004803603604081101561039b57600080fd5b81019080803573ffffffffffffffffffffffffffffffffffffffff16906020019092919080359060200190929190505050610caf565b6040518082815260200191505060405180910390f35b610453600480360360608110156103fd57600080fd5b81019080803573ffffffffffffffffffffffffffffffffffffffff169060200190929190803573ffffffffffffffffffffffffffffffffffffffff16906020019092919080359060200190929190505050610d22565b005b6104816004803603602081101561046b57600080fd5b8101908080359060200190929190505050610d42565b005b6104af6004803603602081101561049957600080fd5b8101908080359060200190929190505050610d61565b6040518082815260200191505060405180910390f35b6104f1600480360360208110156104db57600080fd5b8101908080359060200190929190505050610d95565b604051808273ffffffffffffffffffffffffffffffffffffffff1673ffffffffffffffffffffffffffffffffffffffff16815260200191505060405180910390f35b6105756004803603602081101561054957600080fd5b81019080803573ffffffffffffffffffffffffffffffffffffffff169060200190929190505050610e11565b6040518082815260200191505060405180910390f35b6105b7600480360360208110156105a157600080fd5b8101908080359060200190929190505050610e9a565b005b610607600480360360408110156105cf57600080fd5b81019080803573ffffffffffffffffffffffffffffffffffffffff169060200190929190803515159060200190929190505050610ea7565b005b6106556004803603604081101561061f57600080fd5b81019080803573ffffffffffffffffffffffffffffffffffffffff16906020019092919080359060200190929190505050610fe1565b005b61075a6004803603608081101561066d57600080fd5b81019080803573ffffffffffffffffffffffffffffffffffffffff169060200190929190803573ffffffffffffffffffffffffffffffffffffffff16906020019092919080359060200190929190803590602001906401000000008111156106d457600080fd5b8201836020820111156106e657600080fd5b8035906020019184600183028401116401000000008311171561070857600080fd5b91908080601f016020809104026020016040519081016040528093929190818152602001838380828437600081840152601f19601f820116905080830192505050505050509192919290505050611000565b005b61081f6004803603604081101561077257600080fd5b81019080803590602001909291908035906020019064010000000081111561079957600080fd5b8201836020820111156107ab57600080fd5b803590602001918460018302840111640100000000831117156107cd57600080fd5b91908080601f016020809104026020016040519081016040528093929190818152602001838380828437600081840152601f19601f820116905080830192505050505050509192919290505050611026565b005b610829611065565b6040518080602001828103825283818151815260200191508051906020019060200280838360005b8381101561086c578082015181840152602081019050610851565b505050509050019250505060405180910390f35b6109436004803603604081101561089657600080fd5b8101908080359060200190929190803590602001906401000000008111156108bd57600080fd5b8201836020820111156108cf57600080fd5b803590602001918460018302840111640100000000831117156108f157600080fd5b91908080601f016020809104026020016040519081016040528093929190818152602001838380828437600081840152601f19601f8201169050808301925050505050505091929192905050506110c4565b005b6109a76004803603604081101561095b57600080fd5b81019080803573ffffffffffffffffffffffffffffffffffffffff169060200190929190803573ffffffffffffffffffffffffffffffffffffffff1690602001909291905050506110fa565b604051808215151515815260200191505060405180910390f35b60606109cc8261118e565b6109d557600080fd5b600960008381526020019081526020016000208054600181600116156101000203166002900480601f016020809104026020016040519081016040528092919081815260200182805460018160011615610100020316600290048015610a7c5780601f10610a5157610100808354040283529160200191610a7c565b820191906000526020600020905b815481529060010190602001808311610a5f57829003601f168201915b50505050509050919050565b6000806000837bffffffffffffffffffffffffffffffffffffffffffffffffffffffff19167bffffffffffffffffffffffffffffffffffffffffffffffffffffffff1916815260200190815260200160002060009054906101000a900460ff169050919050565b6000610afa8261118e565b610b0357600080fd5b6002600083815260200190815260200160002060009054906101000a900473ffffffffffffffffffffffffffffffffffffffff169050919050565b6000610b4982610d95565b90508073ffffffffffffffffffffffffffffffffffffffff168373ffffffffffffffffffffffffffffffffffffffff161415610b8457600080fd5b8073ffffffffffffffffffffffffffffffffffffffff163373ffffffffffffffffffffffffffffffffffffffff161480610bc45750610bc381336110fa565b5b610bcd57600080fd5b826002600084815260200190815260200160002060006101000a81548173ffffffffffffffffffffffffffffffffffffffff021916908373ffffffffffffffffffffffffffffffffffffffff160217905550818373ffffffffffffffffffffffffffffffffffffffff168273ffffffffffffffffffffffffffffffffffffffff167f8c5be1e5ebec7d5bd14f71427d1e84f3dd0314c0f7b2291e5b200ac8c7c3b92560405160405180910390a4505050565b6000600780549050905090565b610c963382611200565b610c9f57600080fd5b610caa838383611295565b505050565b6000610cba83610e11565b8210610cc557600080fd5b600560008473ffffffffffffffffffffffffffffffffffffffff1673ffffffffffffffffffffffffffffffffffffffff1681526020019081526020016000208281548110610d0f57fe5b9060005260206000200154905092915050565b610d3d83838360405180602001604052806000815250611000565b505050565b610d4c3382611200565b610d5557600080fd5b610d5e816112b9565b50565b6000610d6b610c7f565b8210610d7657600080fd5b60078281548110610d8357fe5b90600052602060002001549050919050565b6000806001600084815260200190815260200160002060009054906101000a900473ffffffffffffffffffffffffffffffffffffffff169050600073ffffffffffffffffffffffffffffffffffffffff168173ffffffffffffffffffffffffffffffffffffffff161415610e0857600080fd5b80915050919050565b60008073ffffffffffffffffffffffffffffffffffffffff168273ffffffffffffffffffffffffffffffffffffffff161415610e4c57600080fd5b610e93600360008473ffffffffffffffffffffffffffffffffffffffff1673ffffffffffffffffffffffffffffffffffffffff1681526020019081526020016000206112ce565b9050919050565b610ea433826112dc565b50565b3373ffffffffffffffffffffffffffffffffffffffff168273ffffffffffffffffffffffffffffffffffffffff161415610ee057600080fd5b80600460003373ffffffffffffffffffffffffffffffffffffffff1673ffffffffffffffffffffffffffffffffffffffff16815260200190815260200160002060008473ffffffffffffffffffffffffffffffffffffffff1673ffffffffffffffffffffffffffffffffffffffff16815260200190815260200160002060006101000a81548160ff0219169083151502179055508173ffffffffffffffffffffffffffffffffffffffff163373ffffffffffffffffffffffffffffffffffffffff167f17307eab39ab6107e8899845ad3d59bd9653f200f220920489ca2b5937696c3183604051808215151515815260200191505060405180910390a35050565b610ffc33838360405180602001604052806000815250611000565b5050565b61100b848484610c8c565b611017848484846112fd565b61102057600080fd5b50505050565b6110303383611200565b61103957600080fd5b80600960008481526020019081526020016000209080519060200190611060929190611e49565b505050565b6060611070336114e6565b8054806020026020016040519081016040528092919081815260200182805480156110ba57602002820191906000526020600020905b8154815260200190600101908083116110a6575b5050505050905090565b6110ce33836112dc565b806009600084815260200190815260200160002090805190602001906110f5929190611e49565b505050565b6000600460008473ffffffffffffffffffffffffffffffffffffffff1673ffffffffffffffffffffffffffffffffffffffff16815260200190815260200160002060008373ffffffffffffffffffffffffffffffffffffffff1673ffffffffffffffffffffffffffffffffffffffff16815260200190815260200160002060009054906101000a900460ff16905092915050565b6000806001600084815260200190815260200160002060009054906101000a900473ffffffffffffffffffffffffffffffffffffffff169050600073ffffffffffffffffffffffffffffffffffffffff168173ffffffffffffffffffffffffffffffffffffffff161415915050919050565b60008061120c83610d95565b90508073ffffffffffffffffffffffffffffffffffffffff168473ffffffffffffffffffffffffffffffffffffffff16148061127b57508373ffffffffffffffffffffffffffffffffffffffff1661126384610aef565b73ffffffffffffffffffffffffffffffffffffffff16145b8061128c575061128b81856110fa565b5b91505092915050565b6112a083838361152e565b6112aa83826116f1565b6112b4828261188f565b505050565b6112cb6112c582610d95565b82611956565b50565b600081600001549050919050565b6112e68282611990565b6112f0828261188f565b6112f981611ad6565b5050565b600061131e8473ffffffffffffffffffffffffffffffffffffffff16611b22565b61132b57600190506114de565b60008473ffffffffffffffffffffffffffffffffffffffff1663150b7a02338887876040518563ffffffff1660e01b8152600401808573ffffffffffffffffffffffffffffffffffffffff1673ffffffffffffffffffffffffffffffffffffffff1681526020018473ffffffffffffffffffffffffffffffffffffffff1673ffffffffffffffffffffffffffffffffffffffff16815260200183815260200180602001828103825283818151815260200191508051906020019080838360005b838110156114065780820151818401526020810190506113eb565b50505050905090810190601f1680156114335780820380516001836020036101000a031916815260200191505b5095505050505050602060405180830381600087803b15801561145557600080fd5b505af1158015611469573d6000803e3d6000fd5b505050506040513d602081101561147f57600080fd5b8101908080519060200190929190505050905063150b7a0260e01b7bffffffffffffffffffffffffffffffffffffffffffffffffffffffff1916817bffffffffffffffffffffffffffffffffffffffffffffffffffffffff1916149150505b949350505050565b6000600560008373ffffffffffffffffffffffffffffffffffffffff1673ffffffffffffffffffffffffffffffffffffffff1681526020019081526020016000209050919050565b8273ffffffffffffffffffffffffffffffffffffffff1661154e82610d95565b73ffffffffffffffffffffffffffffffffffffffff161461156e57600080fd5b600073ffffffffffffffffffffffffffffffffffffffff168273ffffffffffffffffffffffffffffffffffffffff1614156115a857600080fd5b6115b181611b35565b6115f8600360008573ffffffffffffffffffffffffffffffffffffffff1673ffffffffffffffffffffffffffffffffffffffff168152602001908152602001600020611bf3565b61163f600360008473ffffffffffffffffffffffffffffffffffffffff1673ffffffffffffffffffffffffffffffffffffffff168152602001908152602001600020611c16565b816001600083815260200190815260200160002060006101000a81548173ffffffffffffffffffffffffffffffffffffffff021916908373ffffffffffffffffffffffffffffffffffffffff160217905550808273ffffffffffffffffffffffffffffffffffffffff168473ffffffffffffffffffffffffffffffffffffffff167fddf252ad1be2c89b69c2b068fc378daa952ba7f163c4a11628f55a4df523b3ef60405160405180910390a4505050565b60006117496001600560008673ffffffffffffffffffffffffffffffffffffffff1673ffffffffffffffffffffffffffffffffffffffff16815260200190815260200160002080549050611c2c90919063ffffffff16565b9050600060066000848152602001908152602001600020549050818114611836576000600560008673ffffffffffffffffffffffffffffffffffffffff1673ffffffffffffffffffffffffffffffffffffffff16815260200190815260200160002083815481106117b657fe5b9060005260206000200154905080600560008773ffffffffffffffffffffffffffffffffffffffff1673ffffffffffffffffffffffffffffffffffffffff168152602001908152602001600020838154811061180e57fe5b9060005260206000200181905550816006600083815260200190815260200160002081905550505b600560008573ffffffffffffffffffffffffffffffffffffffff1673ffffffffffffffffffffffffffffffffffffffff1681526020019081526020016000208054809190600190036118889190611ec9565b5050505050565b600560008373ffffffffffffffffffffffffffffffffffffffff1673ffffffffffffffffffffffffffffffffffffffff168152602001908152602001600020805490506006600083815260200190815260200160002081905550600560008373ffffffffffffffffffffffffffffffffffffffff1673ffffffffffffffffffffffffffffffffffffffff1681526020019081526020016000208190806001815401808255809150509060018203906000526020600020016000909192909190915055505050565b6119608282611c4c565b61196a82826116f1565b6000600660008381526020019081526020016000208190555061198c81611d8f565b5050565b600073ffffffffffffffffffffffffffffffffffffffff168273ffffffffffffffffffffffffffffffffffffffff1614156119ca57600080fd5b6119d38161118e565b156119dd57600080fd5b816001600083815260200190815260200160002060006101000a81548173ffffffffffffffffffffffffffffffffffffffff021916908373ffffffffffffffffffffffffffffffffffffffff160217905550611a76600360008473ffffffffffffffffffffffffffffffffffffffff1673ffffffffffffffffffffffffffffffffffffffff168152602001908152602001600020611c16565b808273ffffffffffffffffffffffffffffffffffffffff16600073ffffffffffffffffffffffffffffffffffffffff167fddf252ad1be2c89b69c2b068fc378daa952ba7f163c4a11628f55a4df523b3ef60405160405180910390a45050565b6007805490506008600083815260200190815260200160002081905550600781908060018154018082558091505090600182039060005260206000200160009091929091909150555050565b600080823b905060008111915050919050565b600073ffffffffffffffffffffffffffffffffffffffff166002600083815260200190815260200160002060009054906101000a900473ffffffffffffffffffffffffffffffffffffffff1673ffffffffffffffffffffffffffffffffffffffff1614611bf05760006002600083815260200190815260200160002060006101000a81548173ffffffffffffffffffffffffffffffffffffffff021916908373ffffffffffffffffffffffffffffffffffffffff1602179055505b50565b611c0b60018260000154611c2c90919063ffffffff16565b816000018190555050565b6001816000016000828254019250508190555050565b600082821115611c3b57600080fd5b600082840390508091505092915050565b8173ffffffffffffffffffffffffffffffffffffffff16611c6c82610d95565b73ffffffffffffffffffffffffffffffffffffffff1614611c8c57600080fd5b611c9581611b35565b611cdc600360008473ffffffffffffffffffffffffffffffffffffffff1673ffffffffffffffffffffffffffffffffffffffff168152602001908152602001600020611bf3565b60006001600083815260200190815260200160002060006101000a81548173ffffffffffffffffffffffffffffffffffffffff021916908373ffffffffffffffffffffffffffffffffffffffff16021790555080600073ffffffffffffffffffffffffffffffffffffffff168373ffffffffffffffffffffffffffffffffffffffff167fddf252ad1be2c89b69c2b068fc378daa952ba7f163c4a11628f55a4df523b3ef60405160405180910390a45050565b6000611daa6001600780549050611c2c90919063ffffffff16565b9050600060086000848152602001908152602001600020549050600060078381548110611dd357fe5b906000526020600020015490508060078381548110611dee57fe5b90600052602060002001819055508160086000838152602001908152602001600020819055506007805480919060019003611e299190611ec9565b506000600860008681526020019081526020016000208190555050505050565b828054600181600116156101000203166002900490600052602060002090601f016020900481019282601f10611e8a57805160ff1916838001178555611eb8565b82800160010185558215611eb8579182015b82811115611eb7578251825591602001919060010190611e9c565b5b509050611ec59190611ef5565b5090565b815481835581811115611ef057818360005260206000209182019101611eef9190611ef5565b5b505050565b611f1791905b80821115611f13576000816000905550600101611efb565b5090565b9056fea165627a7a723058200c11415fb7c250693a9a4f3c680db718f0834b70008d8830fabd0c83f36f3b870029",
  "source": "pragma solidity >=0.4.21 <0.6.0;\r\n\r\nimport \"openzeppelin-solidity/contracts/math/SafeMath.sol\";\r\nimport \"openzeppelin-solidity/contracts/utils/Address.sol\";\r\nimport \"openzeppelin-solidity/contracts/token/ERC721/ERC721Enumerable.sol\";\r\n\r\n/** To simplify matters, we can just be using this one single ERC 721-compliant\r\n    token for all items shipped/ tracked on the blockchain (cheese, flour, etc.)\r\n */\r\n\r\ncontract Token is ERC721Enumerable {\r\n\r\n  using Address for address;\r\n  using SafeMath for uint256;\r\n\r\n  // Mapping from token ID to token data\r\n  // Stores arbitrary token data in a byte array (preferably compressed beforehand)\r\n  mapping (uint256 => bytes) private _tokenData;\r\n\r\n  /**\r\n   * @dev Mints a new token without data to msg.sender\r\n   * Reverts if the given token ID already exists\r\n   * @param tokenId tokenId uint256 ID of the token to mint\r\n   */\r\n  function mint(uint256 tokenId) public {\r\n    _mint(msg.sender, tokenId);\r\n  }\r\n\r\n  /**\r\n   * @dev Mints a new token with data to msg.sender\r\n   * Reverts if the given token ID already exists\r\n   * @param tokenId uint256 ID of the token to mint\r\n   * @param tokenData bytes array of data to associate with the token\r\n   */\r\n  function mint(uint256 tokenId, bytes memory tokenData) public {\r\n    _mint(msg.sender, tokenId);\r\n    _tokenData[tokenId] = tokenData;\r\n  }\r\n\r\n  /**\r\n   * @dev Burns a token\r\n   * Requires the msg.sender to be the owner, approved, or operator\r\n   * @param tokenId uint256 ID of the token to burn\r\n   */\r\n  function burn(uint256 tokenId) public {\r\n    require(_isApprovedOrOwner(msg.sender, tokenId));\r\n    _burn(tokenId);\r\n  }\r\n\r\n  /**\r\n   * @dev Gets data associated with a token\r\n   * @param tokenId uint256 ID of the token to retrieve\r\n   * @return bytes the stored data\r\n   */\r\n  function getData(uint tokenId) public view returns (bytes memory) {\r\n    require(_exists(tokenId));\r\n    return _tokenData[tokenId];\r\n  }\r\n\r\n  /**\r\n   * @dev Sets the data in a minted token\r\n   * Requires the msg.sender to be the owner, approved, or operator\r\n   * @param tokenId uint256 ID of the token to mint\r\n   * @param tokenData bytes array of data to associate with the token\r\n   */\r\n  function setData(uint tokenId, bytes memory tokenData) public {\r\n    require(_isApprovedOrOwner(msg.sender, tokenId));\r\n    _tokenData[tokenId] = tokenData;\r\n  }\r\n\r\n  /**\r\n   * @dev Retrieve a list of owned token of msg.sender\r\n   * @return uint256 array of token ids owned\r\n   */\r\n  function tokensOwned() public view returns (uint256[] memory) {\r\n    return _tokensOfOwner(msg.sender);\r\n  }\r\n\r\n  /**\r\n   * @dev Safely transfers the ownership of a given token ID to another address\r\n   * If the target address is a contract, it must implement `onERC721Received`,\r\n   * which is called upon a safe transfer, and return the magic value\r\n   * `bytes4(keccak256(\"onERC721Received(address,address,uint256,bytes)\"))`; otherwise,\r\n   * the transfer is reverted.\r\n   * Requires the msg.sender to be the owner\r\n   * @param to address to receive the ownership of the given token ID\r\n   * @param tokenId uint256 ID of the token to be transferred\r\n   */\r\n  function transfer(address to, uint256 tokenId) public {\r\n    safeTransferFrom(msg.sender, to, tokenId, \"\");\r\n  }\r\n\r\n}\r\n",
  "sourcePath": "/Users/uy259bn/PizzaChain/Pizza-Blockchain-Demo/truffle/contracts/Token.sol",
  "compiler": {
    "name": "solc",
    "version": "0.5.7+commit.6da8b019.Emscripten.clang"
  },
  "schemaVersion": "3.0.9",
  "updatedAt": "2019-07-10T10:49:00.992Z",
  "devdoc": {
    "methods": {
      "approve(address,uint256)": {
        "details": "Approves another address to transfer the given token ID The zero address indicates there is no approved address. There can only be one approved address per token at a given time. Can only be called by the token owner or an approved operator.",
        "params": {
          "to": "address to be approved for the given token ID",
          "tokenId": "uint256 ID of the token to be approved"
        }
      },
      "balanceOf(address)": {
        "details": "Gets the balance of the specified address",
        "params": {
          "owner": "address to query the balance of"
        },
        "return": "uint256 representing the amount owned by the passed address"
      },
      "burn(uint256)": {
        "details": "Burns a token\r Requires the msg.sender to be the owner, approved, or operator\r",
        "params": {
          "tokenId": "uint256 ID of the token to burn\r"
        }
      },
      "getApproved(uint256)": {
        "details": "Gets the approved address for a token ID, or zero if no address set Reverts if the token ID does not exist.",
        "params": {
          "tokenId": "uint256 ID of the token to query the approval of"
        },
        "return": "address currently approved for the given token ID"
      },
      "getData(uint256)": {
        "details": "Gets data associated with a token\r",
        "params": {
          "tokenId": "uint256 ID of the token to retrieve\r"
        },
        "return": "bytes the stored data\r"
      },
      "isApprovedForAll(address,address)": {
        "details": "Tells whether an operator is approved by a given owner",
        "params": {
          "operator": "operator address which you want to query the approval of",
          "owner": "owner address which you want to query the approval of"
        },
        "return": "bool whether the given operator is approved by the given owner"
      },
      "mint(uint256)": {
        "details": "Mints a new token without data to msg.sender\r Reverts if the given token ID already exists\r",
        "params": {
          "tokenId": "tokenId uint256 ID of the token to mint\r"
        }
      },
      "mint(uint256,bytes)": {
        "details": "Mints a new token with data to msg.sender\r Reverts if the given token ID already exists\r",
        "params": {
          "tokenData": "bytes array of data to associate with the token\r",
          "tokenId": "uint256 ID of the token to mint\r"
        }
      },
      "ownerOf(uint256)": {
        "details": "Gets the owner of the specified token ID",
        "params": {
          "tokenId": "uint256 ID of the token to query the owner of"
        },
        "return": "address currently marked as the owner of the given token ID"
      },
      "safeTransferFrom(address,address,uint256)": {
        "details": "Safely transfers the ownership of a given token ID to another address If the target address is a contract, it must implement `onERC721Received`, which is called upon a safe transfer, and return the magic value `bytes4(keccak256(\"onERC721Received(address,address,uint256,bytes)\"))`; otherwise, the transfer is reverted. Requires the msg.sender to be the owner, approved, or operator",
        "params": {
          "from": "current owner of the token",
          "to": "address to receive the ownership of the given token ID",
          "tokenId": "uint256 ID of the token to be transferred"
        }
      },
      "safeTransferFrom(address,address,uint256,bytes)": {
        "details": "Safely transfers the ownership of a given token ID to another address If the target address is a contract, it must implement `onERC721Received`, which is called upon a safe transfer, and return the magic value `bytes4(keccak256(\"onERC721Received(address,address,uint256,bytes)\"))`; otherwise, the transfer is reverted. Requires the msg.sender to be the owner, approved, or operator",
        "params": {
          "_data": "bytes data to send along with a safe transfer check",
          "from": "current owner of the token",
          "to": "address to receive the ownership of the given token ID",
          "tokenId": "uint256 ID of the token to be transferred"
        }
      },
      "setApprovalForAll(address,bool)": {
        "details": "Sets or unsets the approval of a given operator An operator is allowed to transfer all tokens of the sender on their behalf",
        "params": {
          "approved": "representing the status of the approval to be set",
          "to": "operator address to set the approval"
        }
      },
      "setData(uint256,bytes)": {
        "details": "Sets the data in a minted token\r Requires the msg.sender to be the owner, approved, or operator\r",
        "params": {
          "tokenData": "bytes array of data to associate with the token\r",
          "tokenId": "uint256 ID of the token to mint\r"
        }
      },
      "supportsInterface(bytes4)": {
        "details": "implement supportsInterface(bytes4) using a lookup table"
      },
      "tokenByIndex(uint256)": {
        "details": "Gets the token ID at a given index of all the tokens in this contract Reverts if the index is greater or equal to the total number of tokens",
        "params": {
          "index": "uint256 representing the index to be accessed of the tokens list"
        },
        "return": "uint256 token ID at the given index of the tokens list"
      },
      "tokenOfOwnerByIndex(address,uint256)": {
        "details": "Gets the token ID at a given index of the tokens list of the requested owner",
        "params": {
          "index": "uint256 representing the index to be accessed of the requested tokens list",
          "owner": "address owning the tokens list to be accessed"
        },
        "return": "uint256 token ID at the given index of the tokens list owned by the requested address"
      },
      "tokensOwned()": {
        "details": "Retrieve a list of owned token of msg.sender\r",
        "return": "uint256 array of token ids owned\r"
      },
      "totalSupply()": {
        "details": "Gets the total amount of tokens stored by the contract",
        "return": "uint256 representing the total amount of tokens"
      },
      "transferFrom(address,address,uint256)": {
        "details": "Transfers the ownership of a given token ID to another address Usage of this method is discouraged, use `safeTransferFrom` whenever possible Requires the msg.sender to be the owner, approved, or operator",
        "params": {
          "from": "current owner of the token",
          "to": "address to receive the ownership of the given token ID",
          "tokenId": "uint256 ID of the token to be transferred"
        }
      },
      "transfer(address,uint256)": {
        "details": "Safely transfers the ownership of a given token ID to another address\r If the target address is a contract, it must implement `onERC721Received`,\r which is called upon a safe transfer, and return the magic value\r `bytes4(keccak256(\"onERC721Received(address,address,uint256,bytes)\"))`; otherwise,\r the transfer is reverted.\r Requires the msg.sender to be the owner\r",
        "params": {
          "to": "address to receive the ownership of the given token ID\r",
          "tokenId": "uint256 ID of the token to be transferred\r"
        }
      }
    }
  },
  "userdoc": {
    "methods": {},
    "notice": "To simplify matters, we can just be using this one single ERC 721-compliant\r token for all items shipped/ tracked on the blockchain (cheese, flour, etc.)\r"
  }
}